:020000040800F2
:1000000000500020D5300008092C00080F2C0008F3
:10001000152C00081B2C0008212C000800000000F3
:10002000000000000000000000000000272C000875
:10003000332C0008000000003F2C00084B2C000867
:100040001D3100081D3100081D3100081D31000858
:100050001D3100081D3100081D3100081D31000848
:100060001D3100081D3100081D3100081D31000838
:100070001D3100081D3100081D3100081D31000828
:100080001D3100081D3100081D3100081D31000818
:100090001D3100081D3100081D3100081D31000808
:1000A0001D3100081D3100081D3100081D310008F8
:1000B000592C00081D3100081D3100086D2C000866
:1000C000812C00081D3100081D3100081D31000879
:1000D0001D3100081D3100081D3100081D310008C8
:1000E000952C00081D3100081D310008000000009B
:1000F0000000000000000000000000000000000000
:0C01000000000000000000005FF808F1A3
:1001100010B5054C237833B9044B13B10448AFF341
:1001200000800123237010BD0C020020000000009D
:10013000A49B000808B5034B1BB103490348AFF368
:10014000008008BD0000000010020020A49B0008F1
:10015000034613F8012B002AFBD1181A0138704707
:1001600081F0004102E000BF83F0004330B54FEA68
:1001700041044FEA430594EA050F08BF90EA020FD5
:100180001FBF54EA000C55EA020C7FEA645C7FEA68
:10019000655C00F0E2804FEA5454D4EB5555B8BF8B
:1001A0006D420CDD2C4480EA020281EA030382EAFC
:1001B000000083EA010180EA020281EA0303362D8E
:1001C00088BF30BD11F0004F4FEA01314FF4801C61
:1001D0004CEA113102D0404261EB410113F0004F73
:1001E0004FEA03334CEA133302D0524263EB43032A
:1001F00094EA050F00F0A780A4F10104D5F1200EC8
:100200000DDB02FA0EFC22FA05F2801841F1000122
:1002100003FA0EF2801843FA05F359410EE0A5F1F6
:1002200020050EF1200E012A03FA0EFC28BF4CF027
:10023000020C43FA05F3C01851EBE37101F00045DD
:1002400007D54FF0000EDCF1000C7EEB00006EEBEA
:100250000101B1F5801F1BD3B1F5001F0CD3490874
:100260005FEA30004FEA3C0C04F101044FEA4452CB
:1002700012F5800F80F09A80BCF1004F08BF5FEA52
:10028000500C50F1000041EB045141EA050130BD32
:100290005FEA4C0C404141EB0101013C28BFB1F544
:1002A000801FE9D291F0000F04BF01460020B1FA8F
:1002B00081F308BF2033A3F10B03B3F120020CDA62
:1002C0000C3208DD02F1140CC2F10C0201FA0CF040
:1002D00021FA02F10CE002F11402D8BFC2F1200CA5
:1002E00001FA02F120FA0CFCDCBF41EA0C0190405B
:1002F000E41AA2BF01EB0451294330BD6FEA0404A4
:100300001F3C1CDA0C340EDC04F11404C4F120028E
:1003100020FA04F001FA02F340EA030021FA04F3A0
:1003200045EA030130BDC4F10C04C4F1200220FAF7
:1003300002F001FA04F340EA0300294630BD21FA35
:1003400004F0294630BD94F0000F83F4801306BFFB
:1003500081F480110134013D4EE77FEA645C18BFEF
:100360007FEA655C29D094EA050F08BF90EA020F86
:1003700005D054EA000C04BF1946104630BD91EA7E
:10038000030F1EBF0021002030BD5FEA545C05D181
:100390004000494128BF41F0004130BD14F58004C0
:1003A0003CBF01F5801130BD01F0004545F0FE4134
:1003B00041F470014FF0000030BD7FEA645C1ABF69
:1003C000194610467FEA655C1CBF0B46024650EAA0
:1003D000013406BF52EA033591EA030F41F40021CC
:1003E00030BD00BF90F0000F04BF0021704730B552
:1003F0004FF4806404F132044FF000054FF0000127
:1004000050E700BF90F0000F04BF0021704730B5E7
:100410004FF4806404F1320410F0004548BF4042BC
:100420004FF000013EE700BF42004FEAE2014FEA11
:1004300031014FEA02701FBF12F07F4393F07F4FEC
:1004400081F06051704732F07F4208BF704793F0EF
:100450007F4F04BF41F40021704730B54FF4607402
:1004600001F0004521F000411CE700BF50EA010205
:1004700008BF704730B54FF000050AE050EA0102AE
:1004800008BF704730B511F0004502D5404261EB1E
:1004900041014FF4806404F132045FEA915C3FF45F
:1004A000D8AE4FF003025FEADC0C18BF03325FEAFC
:1004B000DC0C18BF033202EBDC02C2F1200300FAAD
:1004C00003FC20FA02F001FA03FE40EA0E0021FAD2
:1004D00002F11444BDE600BF70B54FF0FF0C4CF4C0
:1004E000E06C1CEA11541DBF1CEA135594EA0C0F72
:1004F00095EA0C0F00F0DEF82C4481EA030621EAAD
:100500004C5123EA4C5350EA013518BF52EA0335E7
:1005100041F4801143F4801338D0A0FB02CE4FF099
:100520000005E1FB02E506F00042E0FB03E54FF0C9
:100530000006E1FB03569CF0000F18BF4EF0010EC1
:10054000A4F1FF04B6F5007F64F5407404D25FEABD
:100550004E0E6D4146EB060642EAC62141EA555170
:100560004FEAC52040EA5E504FEACE2EB4F1FD0CB2
:1005700088BFBCF5E06F1ED8BEF1004F08BF5FEA30
:10058000500E50F1000041EB045170BD06F00046E2
:1005900046EA010140EA020081EA0301B4EB5C048F
:1005A000C2BFD4EB0C0541EA045170BD41F4801187
:1005B0004FF0000E013C00F3AB8014F1360FDEBFAC
:1005C000002001F0004170BDC4F10004203C35DA88
:1005D0000C341BDC04F11404C4F1200500FA05F30B
:1005E00020FA04F001FA05F240EA020001F00042AC
:1005F00021F0004110EBD37021FA04F642EB060122
:100600005EEA430E08BF20EAD37070BDC4F10C044B
:10061000C4F1200500FA04F320FA05F001FA04F20F
:1006200040EA020001F0004110EBD37041F10001FB
:100630005EEA430E08BF20EAD37070BDC4F1200506
:1006400000FA05F24EEA020E20FA04F301FA05F26E
:1006500043EA020321FA04F001F0004121FA04F216
:1006600020EA020000EBD3705EEA430E08BF20EAE6
:10067000D37070BD94F0000F0FD101F00046400020
:1006800041EB010111F4801F08BF013CF7D041EAA2
:10069000060195F0000F18BF704703F000465200A6
:1006A00043EB030313F4801F08BF013DF7D043EA77
:1006B0000603704794EA0C0F0CEA135518BF95EA2D
:1006C0000C0F0CD050EA410618BF52EA4306D1D1B4
:1006D00081EA030101F000414FF0000070BD50EAD3
:1006E000410606BF1046194652EA430619D094EA5D
:1006F0000C0F02D150EA013613D195EA0C0F05D147
:1007000052EA03361CBF104619460AD181EA03019A
:1007100001F0004141F0FE4141F470014FF0000052
:1007200070BD41F0FE4141F4780170BD70B54FF0ED
:10073000FF0C4CF4E06C1CEA11541DBF1CEA13556D
:1007400094EA0C0F95EA0C0F00F0A7F8A4EB05044F
:1007500081EA030E52EA03354FEA013100F0888046
:100760004FEA03334FF0805545EA131343EA12630F
:100770004FEA022245EA111545EA10654FEA0026C4
:100780000EF000419D4208BF964244F1FD0404F57D
:10079000407402D25B084FEA3202B61A65EB0305D9
:1007A0005B084FEA32024FF480104FF4002CB6EB96
:1007B000020E75EB030E22BFB61A754640EA0C0016
:1007C0005B084FEA3202B6EB020E75EB030E22BF56
:1007D000B61A754640EA5C005B084FEA3202B6EB97
:1007E000020E75EB030E22BFB61A754640EA9C0056
:1007F0005B084FEA3202B6EB020E75EB030E22BF26
:10080000B61A754640EADC0055EA060E18D04FEAE3
:10081000051545EA16754FEA06164FEAC30343EA83
:1008200052734FEAC2025FEA1C1CC0D111F4801F50
:100830000BD141EA00014FF000004FF0004CB6E749
:1008400011F4801F04BF01430020B4F1FD0C88BFE8
:10085000BCF5E06F3FF6AFAEB5EB030C04BFB6EBF3
:10086000020C5FEA500C50F1000041EB045170BDE6
:100870000EF0004E4EEA113114EB5C04C2BFD4EB13
:100880000C0541EA045170BD41F480114FF0000E97
:10089000013C90E645EA060E8DE60CEA135594EA13
:1008A0000C0F08BF95EA0C0F3FF43BAF94EA0C0F16
:1008B0000AD150EA01347FF434AF95EA0C0F7FF48B
:1008C00025AF104619462CE795EA0C0F06D152EADF
:1008D00003353FF4FDAE1046194622E750EA4106C3
:1008E00018BF52EA43067FF4C5AE50EA41047FF4D4
:1008F0000DAF52EA43057FF4EBAE12E74FF0FF3C39
:1009000006E000BF4FF0010C02E000BF4FF0010C09
:100910004DF804CD4FEA410C7FEA6C5C4FEA430C82
:1009200018BF7FEA6C5C1BD001B050EA410C0CBFD1
:1009300052EA430C91EA030F02BF90EA020F002033
:10094000704710F1000F91EA030F58BF994208BF9A
:1009500090422CBFD8176FEAE37040F00100704757
:100960004FEA410C7FEA6C5C02D150EA013C07D1AE
:100970004FEA430C7FEA6C5CD6D152EA033CD3D0F9
:100980005DF8040B704700BF8446104662468C46F3
:100990001946634600E000BF01B5FFF7B7FF002826
:1009A00048BF10F1000F01BD4DF808EDFFF7F4FF4F
:1009B0000CBF012000205DF808FB00BF4DF808EDDA
:1009C000FFF7EAFF34BF012000205DF808FB00BFFD
:1009D0004DF808EDFFF7E0FF94BF012000205DF81F
:1009E00008FB00BF4DF808EDFFF7CEFF94BF0120D4
:1009F00000205DF808FB00BF4DF808EDFFF7C4FFCD
:100A000034BF012000205DF808FB00BF4FEA410C15
:100A10007FEA6C5C02D150EA013C0AD14FEA430CF8
:100A20007FEA6C5C02D152EA033C02D14FF0000035
:100A300070474FF0010070474FEA410212F5001273
:100A400015D211D56FF47873B3EB625212D94FEA15
:100A5000C12343F0004343EA505311F0004F23FAFF
:100A600002F018BF404270474FF00000704750EA54
:100A7000013005D111F0004008BF6FF00040704711
:100A80004FF00000704700BF80F0004002E000BF60
:100A900081F0004142001FBF5FEA410392EA030F69
:100AA0007FEA226C7FEA236C6AD04FEA1262D2EBB3
:100AB0001363C1BFD218414048404140B8BF5B42B8
:100AC000192B88BF704710F0004F40F4000020F051
:100AD0007F4018BF404211F0004F41F4000121F067
:100AE0007F4118BF494292EA030F3FD0A2F10102B1
:100AF00041FA03FC10EB0C00C3F1200301FA03F1EF
:100B000000F0004302D5494260EB4000B0F5000F11
:100B100013D3B0F1807F06D340084FEA310102F1D0
:100B20000102FE2A51D2B1F1004F40EBC25008BF82
:100B300020F0010040EA03007047490040EB00004C
:100B4000013A28BFB0F5000FEDD2B0FA80FCACF14D
:100B5000080CB2EB0C0200FA0CF0AABF00EBC2507A
:100B600052421843BCBFD0401843704792F0000F68
:100B700081F4000106BF80F400000132013BB5E7BB
:100B80004FEA41037FEA226C18BF7FEA236C21D031
:100B900092EA030F04D092F0000F08BF0846704796
:100BA00090EA010F1CBF0020704712F07F4F04D164
:100BB000400028BF40F00040704712F100723CBF77
:100BC00000F50000704700F0004343F0FE4040F4A1
:100BD000000070477FEA226216BF08467FEA23635F
:100BE0000146420206BF5FEA412390EA010F40F44A
:100BF000800070474FF0000304E000BF10F0004396
:100C000048BF40425FEA000C08BF704743F096437C
:100C100001464FF000001CE050EA010208BF704797
:100C20004FF000030AE000BF50EA010208BF70471E
:100C300011F0004302D5404261EB41015FEA010C33
:100C400002BF84460146002043F0B64308BFA3F12B
:100C50008053A3F50003BCFA8CF2083AA3EBC2530D
:100C600010DB01FA02FC634400FA02FCC2F120022C
:100C7000BCF1004F20FA02F243EB020008BF20F063
:100C80000100704702F1200201FA02FCC2F12002C9
:100C900050EA4C0021FA02F243EB020008BF20EABE
:100CA000DC70704780B500AF022001F0B3FC034652
:100CB000012B1DD1304B1A68304B1B689A4203D070
:100CC0002E4B1B682C4A13602D4B1A682D4B1B684A
:100CD0009A4203D02B4B1B68294A13602A4B1A688F
:100CE0002A4B1B689A4203D0284B1B68224A136088
:100CF000022001F0ADFC0346012B3AD1234B1A68C8
:100D0000204B1B681A441D4B1B689A4231D01B4B69
:100D10001A681E4B19681B4B1B680B44D31A002B17
:100D20000BDD184B1B680133164A1360134B1A680E
:100D3000144B1B68D31A154A1360104B1A68134BD7
:100D40001968104B1B680B44D31A002B11DA0F4B98
:100D50001A680C4B1B681A44084B1B689A4208DD42
:100D6000084B02221A60094B03221A60034B05222A
:100D70001A6000BF80BD00BF240000200C000020CE
:100D80002C0000201400002028000020100000206B
:100D900080B500AF974B1B68013B042B00F2EA8340
:100DA00001A252F823F000BFBD0D0008530E000849
:100DB00041100008E9110008CF13000802F06AF999
:100DC0008C4B02221A608C4B1B684FF47A7202FB28
:100DD00003F3184602F02CF8884B1B68884A13600E
:100DE000854B1B68874A1360844B1B68864A1360D7
:100DF000864B1B68864A13607F4B1B68854A1360CD
:100E00004FF47A7002F030F87D4B1B685A1E7C4913
:100E10000A601846FFF7F2FE03461846FFF704FB88
:100E200002460B467C497D4806F084FC754B1B68E6
:100E30005A1E74490A601846FFF7E0FE034618463A
:100E4000FFF7F2FA02460B467549764806F072FC47
:100E500099E302F0B3F802F00BF9734B1B68012B16
:100E600037D1644B03221A60684B1B684FF47A72C7
:100E700002FB03F3184601F0DBFF644B1B686B4A6F
:100E800013605F4B1B685A1E5D490A601846FFF7E6
:100E9000B5FE03461846FFF7C7FA02460B465E4901
:100EA0005E4806F047FC614B1B685A1E5F490A60AA
:100EB0001846FFF7A3FE03461846FFF7B5FA0246A9
:100EC0000B465749574806F035FC4FF47A7001F04D
:100ED000CBFF574B1B68012B27D1494B1B685A1E70
:100EE00047490A601846FFF789FE03461846FFF790
:100EF0009BFA02460B464849484806F01BFC414B0A
:100F00001B685A1E3F490A601846FFF777FE0346E2
:100F10001846FFF789FA02460B464149414806F058
:100F200009FC4FF47A7001F09FFF002001F072FB82
:100F30000346012B1DD14FF4FA7001F079FF2D4BC0
:100F40000B221A6041F2883001F0C6FF394933485C
:100F500006F0F0FB2C4B1B681846FFF74FFE0346CC
:100F60001846FFF761FA02460B4633492D4806F052
:100F7000E1FB002001F06CFB0346012B18D1FA20A5
:100F800001F056FF1B4B0B221A602A49234806F03A
:100F9000D1FB1D4B1B681846FFF730FE0346184671
:100FA000FFF742FA02460B4623491E4806F0C2FBF1
:100FB000012001F02FFB0346012B40F0DD824FF4AE
:100FC0007A7001F035FF0B4B0E221A601B49134853
:100FD00006F0B0FB0C4B1B681846FFF70FFE0346EC
:100FE0001846FFF721FA02460B4613490D4806F052
:100FF000A1FBC1E22C020020100000200C00002008
:101000000000002004000020240000201400002024
:101010002C00002028000020C09B0008A402002013
:10102000CC9B000884020020600200200800002001
:1010300068020020D89B0008E89B0008F89B000885
:1010400001F0BCFF02F002F8AF4B1B68012B3BD153
:10105000AE4B04221A60AE4B1B684FF47A7202FB4F
:1010600003F3184601F0E4FEA94B1B68A94A13607C
:10107000A94B1B68A94A1360A64B1B685A1EA549B9
:101080000A601846FFF7BAFD03461846FFF7CCF989
:1010900002460B46A249A34806F04CFB9F4B1B6837
:1010A0005A1E9E490A601846FFF7A8FD03461846D7
:1010B000FFF7BAF902460B469B499C4806F03AFBFB
:1010C0004FF47A7001F0D0FE994B1B68012B27D1A9
:1010D000924B1B685A1E91490A601846FFF78EFD15
:1010E00003461846FFF7A0F902460B468C498D4887
:1010F00006F020FB8F4B1B685A1E8E490A6018466B
:10110000FFF77CFD03461846FFF78EF902460B46B3
:101110008549864806F00EFB4FF47A7001F0A4FE74
:10112000002001F077FA0346012B1CD1FA2001F0D0
:101130007FFE764B0B221A6041F2883001F0CCFE24
:101140007D49784806F0F6FA7C4B1B681846FFF795
:1011500055FD03461846FFF767F902460B467849E6
:10116000724806F0E7FA002001F072FA0346012BFC
:1011700018D1FA2001F05CFE644B0B221A606E4914
:10118000684806F0D7FA6D4B1B681846FFF736FD26
:1011900003461846FFF748F902460B46684963487C
:1011A00006F0C8FA012001F035FA0346012B40F0A1
:1011B000E5814FF47A7001F03BFE544B0E221A6029
:1011C0006049584806F0B6FA5C4B1B681846FFF7B2
:1011D00015FD03461846FFF727F902460B46584906
:1011E000524806F0A7FAC9E101F00CFF01F01CFF1C
:1011F000454B1B68012B37D1444B05221A60524BDB
:101200001B684FF47A7202FB03F3184601F010FEDC
:101210004D4B1B68474A1360464B1B685A1E454995
:101220000A601846FFF7EAFC03461846FFF7FCF889
:1012300002460B463A493B4806F07CFA374B1B689E
:101240005A1E36490A601846FFF7D8FC034618466E
:10125000FFF7EAF802460B463349344806F06AFACB
:101260004FF47A7001F000FE314B1B68012B27D13F
:10127000284B1B685A1E27490A601846FFF7BEFC18
:1012800003461846FFF7D0F802460B462449254886
:1012900006F050FA214B1B685A1E20490A60184676
:1012A000FFF7ACFC03461846FFF7BEF802460B46B4
:1012B0001D491E4806F03EFA4FF47A7001F0D4FD45
:1012C000002001F0A7F90346012B3FD1FA2001F0DD
:1012D000AFFD0E4B0B221A6041F2883001F0FCFD8D
:1012E0001549104806F026FA144B1B681846FFF7FC
:1012F00085FC03461846FFF797F802460B4610494F
:101300000A4806F017FA40E0600200202C02002094
:1013100010000020040000200C000020000000202D
:10132000C09B0008A4020020CC9B0008840200207F
:101330006802002008000020D89B0008240000203C
:10134000E89B0008F89B000814000020002001F032
:101350007FF90346012B18D1FA2001F069FD8B4B70
:101360000B221A608A498B4806F0E4F98A4B1B6805
:101370001846FFF743FC03461846FFF755F80246A8
:101380000B468649864806F0D5F9012001F042F95E
:101390000346012B40F0F4804FF47A7001F048FDD1
:1013A0007A4B0E221A607F497A4806F0C3F97A4BCD
:1013B0001B681846FFF722FC03461846FFF734F86F
:1013C00002460B467549764806F0B4F9D8E001F0BC
:1013D00007FE01F029FE744B1B68012B3BD16B4BC0
:1013E00002221A60714B1B684FF47A7202FB03F3FE
:1013F000184601F01DFD6E4B1B686E4A13606B4B67
:101400001B686D4A13606B4B1B685A1E69490A6062
:101410001846FFF7F3FB03461846FFF705F80246A8
:101420000B4666495B4806F085F9634B1B685A1EFC
:1014300061490A601846FFF7E1FB03461846FEF7CC
:10144000F3FF02460B465E49554806F073F94FF428
:101450007A7001F009FD5B4B1B68012B27D15A4BB9
:101460001B685A1E58490A601846FFF7C7FB034617
:101470001846FEF7D9FF02460B465049454806F08C
:1014800059F94C4B1B685A1E4A490A601846FFF727
:10149000B5FB03461846FEF7C7FF02460B46484910
:1014A0003F4806F047F94FF47A7001F0DDFC002068
:1014B00001F0B0F80346012B1CD1FA2001F0B8FC72
:1014C000324B0B221A6041F2883001F005FD3049A1
:1014D000304806F02FF9304B1B681846FFF78EFB9B
:1014E00003461846FEF7A0FF02460B462B492C4840
:1014F00006F020F9002001F0ABF80346012B18D1CB
:10150000FA2001F095FC214B0B221A60204921485A
:1015100006F010F9204B1B681846FFF76FFB0346D7
:101520001846FEF781FF02460B461C491C4806F090
:1015300001F9012001F06EF80346012B22D14FF48E
:101540007A7001F075FC114B0E221A601549114892
:1015500006F0F0F8104B1B681846FFF74FFB0346E8
:101560001846FEF761FF02460B460C490C4806F090
:10157000E1F807E000BF06E000BF04E000BF02E0C2
:1015800000BF00E000BF00BF80BD00BF2C020020F4
:10159000D89B0008A402002024000020E89B00083B
:1015A00084020020F89B0008600200201000002048
:1015B0000C0000200000002004000020C09B000858
:1015C000CC9B0008680200200800002080B500AF16
:1015D000AA4B1B680A3B032B00F2F58301A252F8C9
:1015E00023F000BFF515000877160008C918000899
:1015F000931A0008A24B1B684FF47A7202FB03F3A4
:10160000184601F015FC4FF47A7001F02DFC9D4B4B
:101610001B689D4A13609A4B1B689C4A13609C4B45
:101620001B689C4A1360984B1B685A1E96490A60B7
:101630001846FFF7E3FA03461846FEF7F5FE0246A2
:101640000B469549954806F075F8904B1B685A1E55
:101650008E490A601846FFF7D1FA03461846FEF78E
:10166000E3FE02460B468E498E4806F063F8834B34
:1016700002221A60AEE38C4B1B68012B20D17F4BFA
:101680000A221A60804B1B681846FFF7B7FA034618
:101690001846FEF7C9FE02460B467F497F4806F012
:1016A00049F87A4B1B681846FFF7A8FA0346184614
:1016B000FEF7BAFE02460B4679497A4806F03AF838
:1016C0007A4B1B68002B04D101F078FC01F0ACFCD4
:1016D00001E001F0DFFC002000F09CFF0346012B3D
:1016E00021D1664B0C221A604FF4FA7001F0A0FB76
:1016F00041F2883001F0F0FB6C4B00221A606C491B
:10170000664806F017F8634B1B681846FFF776FA31
:1017100003461846FEF788FE02460B4665496148B7
:1017200006F008F826E0002000F092FF0346012BA7
:1017300020D1524B0C221A604FF4FA7001F078FB62
:1017400041F2883001F0C8FB584B00221A6058491A
:10175000524805F0EFFF4F4B1B681846FFF74EFA53
:1017600003461846FEF760FE02460B4651494D48B7
:1017700005F0E0FF504B1B68012B09D14FF4FA70C4
:1017800001F056FB494B1B68C3F10103474A136044
:10179000012000F03FFF0346012B23D141F28830A6
:1017A00001F09AFB454B1B680133444A1360434BDD
:1017B0001B68632B02DD414B01221A604049374808
:1017C00005F0B8FF3D4B1B681846FFF717FA0346B4
:1017D0001846FEF729FE02460B463A49314805F005
:1017E000A9FF28E0012000F033FF0346012B22D19E
:1017F00041F2883001F070FB304B1B6801332F4AF7
:1018000013602E4B1B68632B02DD2C4B01221A60E8
:101810002B49224805F08EFF284B1B681846FFF71E
:10182000EDF903461846FEF7FFFD02460B46254933
:101830001C4805F07FFF022000F0ECFE0346012B60
:1018400040F0C38241F2883001F046FB1B4B1B681D
:101850000C4A13601A49114805F06CFF094B1B68CC
:101860001846FFF7CBF903461846FEF7DDFD0246A2
:101870000B4614490B4805F05DFFA6E22C02002040
:10188000100000200C0000200000002004000020B8
:10189000140000202C000020089C0008A402002056
:1018A000149C0008840200207802002028020020F6
:1018B000209C0008309C00086002002024000020CA
:1018C000409C0008509C0008924B1B68012B02D1E1
:1018D000914B0A221A60914B1B68002B04D101F036
:1018E0007FFB01F0B3FB01E001F0D4FB002000F02E
:1018F00091FE0346012B21D141F2883001F0ECFA30
:10190000854B0D221A604FF4FA7001F091FA834B67
:1019100000221A608249834805F00CFF824B1B6845
:101920001846FFF76BF903461846FEF77DFD0246A1
:101930000B467E497E4805F0FDFE26E0002000F0C3
:1019400087FE0346012B20D141F2883001F0C4FA12
:10195000714B0D221A604FF4FA7001F069FA6F4B67
:1019600000221A606E496F4805F0E4FE6E4B1B685A
:101970001846FFF743F903461846FEF755FD0246A1
:101980000B466A496A4805F0D5FE6A4B1B68012B75
:1019900009D14FF4FA7001F04BFA604B1B68C3F1A8
:1019A00001035E4A1360012000F034FE0346012B60
:1019B00023D141F2883001F08FFA5F4B1B6801336D
:1019C0005D4A13605C4B1B68632B02DD5A4B01229E
:1019D0001A605A49534805F0ADFE574B1B6818462C
:1019E000FFF70CF903461846FEF71EFD02460B46AC
:1019F00053494F4805F09EFE28E0012000F028FEE4
:101A00000346012B22D141F2883001F065FA4A4B9E
:101A10001B680133484A1360474B1B68632B02DD88
:101A2000454B01221A6045493E4805F083FE424B72
:101A30001B681846FFF7E2F803461846FEF7F4FC69
:101A400002460B463E493A4805F074FE022000F07B
:101A5000E1FD0346012B40F0BA8141F2883001F0EC
:101A60003BFA354B1B68374A136034492D4805F063
:101A700061FE344B1B681846FFF7C0F80346184652
:101A8000FEF7D2FC02460B462D49294805F052FECE
:101A90009DE1204B1B68012B02D11F4B0A221A60CB
:101AA000002000F0B7FD0346012B40F0908041F28A
:101AB000883001F011FA184B0A221A60224B1A687A
:101AC000224B19681F4B1B680B44D31A002B5FDA9B
:101AD0001E4B1A681B4B1B681A441B4B1B689A420F
:101AE0003EDD1B4B1B68174A13601A4B1B68174AD5
:101AF0001360194B1B68144A1360154B1B680E4A80
:101B00001360144B1B68084A1360134B1B68134A7D
:101B100013603DE0780200202C0200202802002003
:101B2000609C0008A402002028000020709C00088F
:101B300084020020600200202C000020209C00086D
:101B4000309C0008140000200C0000201000002031
:101B5000200000201C00002018000020240000208D
:101B60009D4B1B689D4A13609D4B1B689D4A1360EB
:101B70009D4B1B689D4A1360984B1B689C4A1360E1
:101B8000984B1B689B4A1360984B1B689A4A1360DA
:101B90009A4B1B681846FFF731F803461846FEF7C4
:101BA00043FC02460B469649964805F0C3FD964B0A
:101BB0001B681846FFF722F803461846FEF734FC68
:101BC00002460B469149924805F0B4FD6EE00020B4
:101BD00000F03EFD0346012B68D141F2883001F050
:101BE0007BF98C4B0A221A607F4B1A687C4B196870
:101BF000794B1B680B44D31A002B39DA784B1A68DF
:101C0000754B1B681A44784B1B689A4218DD734B5E
:101C10001B68714A1360734B1B68714A1360734BE6
:101C20001B68714A13606D4B1B68714A13606D4BE2
:101C30001B68704A13606D4B1B686F4A136017E096
:101C4000654B1B68654A1360654B1B68654A1360EA
:101C5000654B1B68654A1360604B1B68644A1360E0
:101C6000604B1B68634A1360604B1B68624A1360D9
:101C7000624B1B681846FEF7C1FF03461846FEF785
:101C8000D3FB02460B465E495E4805F053FD5E4BB2
:101C90001B681846FEF7B2FF03461846FEF7C4FB62
:101CA00002460B4659495A4805F044FD5A4B1B68F9
:101CB000002B04D101F0A6F901F0DAF901E001F0FE
:101CC000E9F9564B1B68012B09D1534B1B68C3F133
:101CD0000103514A13604FF4FA7001F0A9F8012092
:101CE00000F098FC0346012B22D141F2883001F02C
:101CF000F3F8404B1B6801333E4A13603D4B1B68B1
:101D0000632B02DD3B4B01221A6045493D4805F03B
:101D100011FD384B1B681846FEF770FF0346184646
:101D2000FEF782FB02460B463E49394805F002FDAC
:101D3000012000F08DFC0346012B22D141F28830B6
:101D400001F0CAF82B4B1B6801332A4A1360294B58
:101D50001B68632B02DD274B01221A60304929489A
:101D600005F0E8FC234B1B681846FEF747FF0346C7
:101D70001846FEF759FB02460B462A49244805F04F
:101D8000D9FC022000F046FC0346012B21D141F290
:101D9000883001F0A1F8174B1B68114A13602049E5
:101DA000184805F0C7FC0E4B1B681846FEF726FFC7
:101DB00003461846FEF738FB02460B4619491448FD
:101DC00005F0B8FC05E000BF04E000BF02E000BF82
:101DD00000E000BF00BF80BD1400002020000020F4
:101DE000100000201C0000200C0000201800002023
:101DF0002C000020280000202400002000000020EB
:101E0000089C0008A402002004000020149C000884
:101E1000840200202C020020280200206002002002
:101E2000609C0008709C000880B500AFA44B1B6844
:101E3000102B00F06581102B00F3E4810E2B03D0F2
:101E40000F2B00F0A080DDE101F0B8F801F0ECF814
:101E5000002000F0DFFB0346012B05D1994B1B68E6
:101E6000013B984A136022E0002000F0F1FB03469A
:101E7000012B05D1934B1B68013B924A136016E07E
:101E8000022000F0C7FB0346012B05D18D4B1B68D8
:101E900001338C4A13600AE0022000F0D9FB0346AC
:101EA000012B04D1874B1B680133864A1360854B95
:101EB0001B68002B02DA834B63221A60814B1B687C
:101EC000632B02DD7F4B00221A607F497F4805F0BB
:101ED00031FC7C4B1B681846FEF790FE0346184603
:101EE000FEF7A2FA02460B4679497A4805F022FC31
:101EF000012000F08FFB0346012B18D1FA2000F0DF
:101F000097FF6F4B0F221A607349704805F012FC5F
:101F1000724B1B681846FEF771FE03461846FEF723
:101F200083FA02460B466E496A4805F003FC01201D
:101F300000F08EFB0346012B40F06681FA2000F092
:101F400077FF5F4B02221A60664B1B681846FEF74C
:101F500055FE03461846FEF767FA02460B466249ED
:101F60005A4805F0E7FB614B1B681846FEF746FE32
:101F700003461846FEF758FA02460B465C49554898
:101F800005F0D8FB40E101F02BF801F05FF80020EC
:101F900000F040FB0346012B04D1504B1B68013B72
:101FA0004E4A1360002000F053FB0346012B04D17E
:101FB0004A4B1B68013B494A1360022000F02AFB90
:101FC0000346012B04D1454B1B680133434A136080
:101FD000022000F03DFB0346012B04D13F4B1B6860
:101FE00001333E4A13603D4B1B68002B02DA3B4B2A
:101FF00063221A60394B1B68632B02DD374B0022CA
:102000001A603549314805F095FB344B1B6818467A
:10201000FEF7F4FD03461846FEF706FA02460B46A5
:102020002F492C4805F086FB012000F0F3FA034607
:10203000012B18D1FA2000F0FBFE214B10221A6070
:102040002C49224805F076FB2B4B1B681846FEF7FF
:10205000D5FD03461846FEF7E7F902460B46274929
:102060001C4805F067FB012000F0F2FA0346012B43
:1020700040F0CC80FA2000F0DBFE114B02221A6007
:10208000184B1B681846FEF7B9FD03461846FEF7C5
:10209000CBF902460B4614490C4805F04BFB134B99
:1020A0001B681846FEF7AAFD03461846FEF7BCF962
:1020B00002460B460E49074805F03CFBA6E000BF70
:1020C0002C0200200C000020809C0008A4020020AC
:1020D000909C0008840200209C9C000814000020B2
:1020E000AC9C000800000020B89C00080400002000
:1020F000C49C0008D09C000810000020E09C000850
:1021000000F080FF00F0B4FF002000F083FA0346E7
:10211000012B04D1404B1B68013B3F4A1360002058
:1021200000F096FA0346012B04D13B4B1B68013BA0
:10213000394A1360022000F06DFA0346012B04D1E6
:10214000354B1B680133344A1360002000F080FADD
:102150000346012B04D1304B1B6801332E4A136018
:102160002D4B1B68002B02DA2B4B63221A602A4B83
:102170001B68632B02DD284B00221A602749284880
:1021800005F0D8FA244B1B681846FEF737FD0346C6
:102190001846FEF749F902460B462249224805F047
:1021A000C9FA012000F054FA0346012B05D00120A2
:1021B00000F030FA0346012B2AD1FA2000F038FE55
:1021C0001A4B02221A601A4B1B681846FEF716FDBE
:1021D00003461846FEF728F902460B4615491048F3
:1021E00005F0A8FA144B1B681846FEF707FD0346D6
:1021F0001846FEF719F902460B4610490A4805F041
:1022000099FA05E000BF04E000BF02E000BF00E073
:1022100000BF00BF80BD00BF10000020D09C0008A0
:10222000A4020020E09C0008840200202C02002070
:1022300000000020B89C000804000020C49C000896
:1022400080B586B002AF0346FB71FB7923F00F0324
:10225000FB73FB791B01BB73FB7B43F00C03DBB20D
:102260003B72FB7B43F00803DBB27B72BB7B43F02A
:102270000C03DBB2BB72BB7B43F00803DBB2FB7227
:1022800007F108026423009304234221034801F06C
:102290008FFC00BF1037BD4680BD00BFC4020020C8
:1022A00080B586B002AF0346FB71FB7923F00F03C4
:1022B000FB73FB791B01BB73FB7B43F00D03DBB2AC
:1022C0003B72FB7B43F00903DBB27B72BB7B43F0C9
:1022D0000D03DBB2BB72BB7B43F00903DBB2FB72C5
:1022E00007F108026423009304234221034801F00C
:1022F0005FFC00BF1037BD4680BD00BFC402002098
:1023000080B500AF3320FFF79BFF3220FFF798FF27
:10231000322000F067FF2820FFF792FF322000F004
:1023200061FF0120FFF78CFF322000F05BFF0620E9
:10233000FFF786FF322000F055FF0C20FFF780FFEB
:10234000322000F04FFF0220FFF77AFF322000F02A
:1023500049FF8020FFF774FF00BF80BD80B582B0C9
:1023600000AF786006E07B685A1C7A601B781846DC
:10237000FFF796FF7B681B78002BF4D100BF00BFEE
:102380000837BD4680BD80B584B000AF7860396045
:102390007B68012B08D17B68DAB23B68DBB213445F
:1023A000DBB27F33FB7308E03B68DBB24033DBB268
:1023B0005BB263F07F035BB2FB73FB7B1846FFF7F6
:1023C0003FFF00BF1037BD4680BD000080B500AFA5
:1023D000124B1B68012B1ED101210120FFF7D3FFF7
:1023E0000F48FFF7BBFF01210220FFF7CCFF0C488D
:1023F000FFF7B4FF01210120FFF7C5FF0948FFF7F0
:10240000ADFF01210220FFF7BEFF0748FFF7A6FF3F
:10241000642000F045FD00BF80BD00BF70020020B9
:10242000EC9C0008A40200208402002080B582B049
:1024300000AF00237B60D2E06D4A7B6813441978BB
:102440006C4A7B6813440A461A707B68022B22D0C0
:102450007B68022B2BDC7B68002B03D07B68012B75
:102460000CD024E01021644801F0F8F90346194625
:102470005F4A7B6813440A461A7019E04FF4806182
:102480005D4801F0EBF903461946594A7B6813444D
:102490000A461A700CE02021574801F0DFF9034684
:1024A0001946534A7B6813440A461A7000E000BF7D
:1024B0004F4A7B6813441A784E497B680B441B785B
:1024C0009A4240F089804A4A7B68134419784B4A03
:1024D0007B6813440A461A70484A7B6813441B7889
:1024E000002B44D1464A7B6832F81330632B1FD847
:1024F000434A7B6832F81330013399B2404A7B6813
:1025000022F813103E4A7B6832F81330642B2ED128
:102510003C4A7B68134401221A703B4A7B6813448F
:1025200000221A70394A7B68002122F813101EE03D
:10253000364A7B6832F81330013399B2334A7B68EC
:1025400022F81310314A7B6832F81330182B0ED959
:102550002D4A7B68134400221A702A4A7B68134470
:1025600001221A70294A7B68002122F81310234A9D
:102570007B6813441B78012B25D1254A7B681344C3
:102580001B78002B1FD11E4A7B6832F81330002BBA
:102590000AD01B4A7B6832F81330632B04D81A4ADE
:1025A0007B68134401221A70154A7B68002122F8C7
:1025B0001310164A7B68002122F81310114A7B6819
:1025C000134400221A700D4A7B6813441978104A8C
:1025D0007B6813440A461A707B6801337B607B6812
:1025E000022B7FF729AF00BF00BF0837BD4680BD73
:1025F000380200203C020020000C01403002002084
:102600004802002040020020440200205002002026
:102610003402002080B483B000AF0346FB71FB7925
:10262000022B01D900230BE0FB79084AD35C012B74
:1026300005D1FB79054A0021D154012300E0002394
:1026400018460C37BD4680BC704700BF44020020CE
:1026500080B483B000AF0346FB71FB79022B01D934
:1026600000230BE0FB79084AD35C012B05D1FB79F1
:10267000054A0021D154012300E0002318460C37FD
:10268000BD4680BC704700BF4002002080B500AF4F
:1026900000F046FD00F022F800F006F900F0DAF84C
:1026A00000F08CF800F05CF80A4803F031FFFFF707
:1026B00027FE094B01221A60642000F0F1FBFEF7AF
:1026C00067FBFEF783FFFFF7AFFBFFF77FFEFEF729
:1026D000E9FAF4E7180300202C02002080B590B03E
:1026E00000AF07F1180328220021184604F0BAFBB6
:1026F0003B1D00221A605A609A60DA601A61022358
:10270000BB610123BB621023FB6202237B630023B6
:10271000BB634FF46013FB6307F11803184603F023
:1027200099FA0346002B01D000F075F90F237B6066
:102730000223BB60A023FB604FF480633B61002356
:102740007B613B1D0221184603F004FD0346002B6C
:1027500001D000F060F900BF4037BD4680BD0000E9
:1027600080B500AF124B134A1A60114B124A5A60DF
:102770000F4B00229A600E4B0022DA600C4B4FF494
:1027800080421A610A4B00225A61094B00229A6169
:10279000074B0022DA61064B00221A62044801F05E
:1027A000AFF80346002B01D000F035F900BF80BD23
:1027B000C402002000540040A086010080B586B00D
:1027C00000AF07F1080300221A605A609A60DA60CD
:1027D0003B4600221A605A601D4B4FF080421A603F
:1027E0001B4B41F63F725A60194B00229A60184BFE
:1027F0000922DA60164B00221A61154B00229A61F9
:10280000134803F035FE0346002B01D000F003F916
:102810004FF48053BB6007F1080319460C4803F0DE
:10282000B9FF0346002B01D000F0F5F800233B6010
:1028300000237B603B461946054804F09BF903469C
:10284000002B01D000F0E7F800BF1837BD4680BD6F
:102850001803002080B500AF114B124A1A60104BCC
:102860004FF4E1325A600E4B00229A600C4B00226A
:10287000DA600B4B00221A61094B0C225A61084B9B
:1028800000229A61064B0022DA61054804F0E2F961
:102890000346002B01D000F0BEF800BF80BD00BF92
:1028A000600300200044004080B588B000AF07F10D
:1028B000100300221A605A609A60DA60484B9B69E4
:1028C000474A43F010039361454B9B6903F01003A3
:1028D000FB60FB68424B9B69414A43F020039361D4
:1028E0003F4B9B6903F02003BB60BB683C4B9B697B
:1028F0003B4A43F004039361394B9B6903F00403A3
:102900007B607B68364B9B69354A43F008039361D3
:10291000334B9B6903F008033B603B6800224FF494
:102920004871304800F0B1FF002280212E4800F0AD
:10293000ACFF002240212D4800F0A7FF4FF40053C8
:102940003B612B4B7B610023BB6107F110031946F0
:10295000254800F0FFFD4FF448733B6101237B6184
:102960000023BB610223FB6107F1100319461D48D8
:1029700000F0F0FD4FF486633B6100237B61002390
:10298000BB6107F110031946184800F0E3FD8023EE
:102990003B6101237B610023BB610223FB6107F1E3
:1029A00010031946104800F0D5FD40233B61012378
:1029B0007B610023BB610223FB6107F11003194611
:1029C0000A4800F0C7FD00220021282000F005FD84
:1029D000282000F01EFD00BF2037BD4680BD00BF8F
:1029E000001002400008014000100140000C0140AE
:1029F0000000111080B582B000AF78607B681B6862
:102A0000B3F1804F03D1FFF711FD00F081FA00BF51
:102A10000837BD4680BD80B400AF72B600BFFEE788
:102A200080B485B000AF154B9B69144A43F0010395
:102A30009361124B9B6903F00103BB60BB680F4BB2
:102A4000DB690E4A43F08053D3610C4BDB6903F022
:102A500080537B607B680A4B5B68FB60FB6823F0FC
:102A6000E063FB60FB6843F00073FB60044AFB68B3
:102A7000536000BF1437BD4680BC70470010024051
:102A80000000014080B58AB000AF786007F1140300
:102A900000221A605A609A60DA607B681B68254AD7
:102AA000934242D1244B9B69234A43F0080393612C
:102AB000214B9B6903F008033B613B694FF4407372
:102AC0007B611223BB6103233B6207F114031946A8
:102AD0001A4800F03FFD1A4B5B687B627B6A43F04B
:102AE000E0637B627B6A43F002037B62144A7B6A89
:102AF0005360114BDB69104A43F40013D3610E4B52
:102B0000DB6903F40013FB60FB68002200211F2037
:102B100000F063FC1F2000F07CFC0022002120203C
:102B200000F05BFC202000F074FC00BF2837BD469D
:102B300080BD00BF0054004000100240000C014066
:102B40000000014080B584B000AF78607B681B68EE
:102B5000B3F1804F13D10C4BDB690B4A43F00103F7
:102B6000D361094BDB6903F00103FB60FB680022C2
:102B700000211C2000F031FC1C2000F04AFC00BFAA
:102B80001037BD4680BD00BF0010024080B588B040
:102B900000AF786007F1100300221A605A609A6053
:102BA000DA607B681B68154A934223D1144BDB69BA
:102BB000134A43F40033D361114BDB6903F4003350
:102BC000FB60FB680E4B9B690D4A43F00403936165
:102BD0000B4B9B6903F00403BB60BB680C233B6198
:102BE00002237B610223FB6107F1100319460548AC
:102BF00000F0B0FC00BF2037BD4680BD004400405F
:102C0000001002400008014080B400AFFEE780B42D
:102C100000AFFEE780B400AFFEE780B400AFFEE790
:102C200080B400AFFEE780B400AF00BFBD4680BCFB
:102C3000704780B400AF00BFBD4680BC704780B411
:102C400000AF00BFBD4680BC704780B500AF00F04C
:102C5000ADFA00BF80BD000080B500AF024803F0B0
:102C6000A9FC00BF80BD00BF1803002080B500AFE5
:102C7000024801F09BF800BF80BD00BFC4020020E5
:102C800080B500AF024801F002FA00BF80BD00BF6E
:102C9000C402002080B500AF4FF4005000F00EFEDB
:102CA00000BF80BD80B400AF01231846BD4680BC84
:102CB000704780B582B000AF7860396004F0A8F842
:102CC000034616221A604FF0FF3318460837BD46F8
:102CD00080BD80B582B000AF78604FF0FF3178687A
:102CE000FFF7E7FFFEE780B586B000AFF860B96098
:102CF0007A6000237B610AE0AFF300800146BB6885
:102D00005A1CBA60CAB21A707B6901337B617A6956
:102D10007B689A42F0DB7B6818461837BD4680BD59
:102D200080B586B000AFF860B9607A6000237B613F
:102D300009E0BB685A1CBA601B781846AFF30080E4
:102D40007B6901337B617A697B689A42F1DB7B683E
:102D500018461837BD4680BD80B483B000AF786098
:102D60004FF0FF3318460C37BD4680BC704780B427
:102D700083B000AF786039603B684FF400525A600E
:102D8000002318460C37BD4680BC704780B483B022
:102D900000AF7860012318460C37BD4680BC7047F1
:102DA00080B485B000AFF860B9607A60002318463F
:102DB0001437BD4680BC704780B586B000AF7860E0
:102DC000144A154BD31A7B617B693B61134B1B681B
:102DD000002B02D1114B124A1A60104B1A687B6803
:102DE00013443A699A4207D204F012F803460C22BF
:102DF0001A604FF0FF3309E0084B1B68FB60074B7C
:102E00001A687B681344054A1360FB681846183734
:102E1000BD4680BD00500020000400005802002084
:102E2000C003002080B400AF00BFBD4680BC704727
:102E300080B483B000AF78607B68084A82FB0312DD
:102E40009210DB17D31A064A1360064B00221A6051
:102E500000BF0C37BD4680BC704700BF6766666622
:102E60005C0200206002002080B483B000AF786074
:102E70007B68084A82FB03129210DB17D31A064ABA
:102E80001360064B00221A6000BF0C37BD4680BCA1
:102E9000704700BF67666666640200206802002013
:102EA00080B483B000AF78607B68084A82FB03126D
:102EB0009210DB17D31A064A1360064B00221A60E1
:102EC00000BF0C37BD4680BC704700BF67666666B2
:102ED0006C0200207002002080B483B000AF7860E4
:102EE0007B68084A82FB03129210DB17D31A064A4A
:102EF0001360064B00221A6000BF0C37BD4680BC31
:102F0000704700BF67666666740200207802002082
:102F100080B400AF214B1B68002B0BDD1F4B1B68DF
:102F2000013B1E4A13601D4B1B68002B02DC1C4B2F
:102F300001221A601B4B1B68002B0BDD194B1B6811
:102F4000013B184A1360174B1B68002B02DC164B21
:102F500001221A60154B1B68002B0BDD134B1B68FD
:102F6000013B124A1360114B1B68002B02DC104B13
:102F700001221A600F4B1B68002B0BDD0D4B1B68E9
:102F8000013B0C4A13600B4B1B68002B02DC0A4B05
:102F900001221A6000BFBD4680BC70475C02002061
:102FA0006002002064020020680200206C02002001
:102FB00070020020740200207802002080B500AF6B
:102FC00001224FF40071054800F05FFC01224FF42C
:102FD0008071024800F059FC00BF80BD000801402C
:102FE00080B500AF01224FF40071054800F04DFCA0
:102FF00000224FF48071024800F047FC00BF80BD02
:103000000008014080B500AF00224FF40071054870
:1030100000F03BFC01224FF48071024800F035FCC7
:1030200000BF80BD0008014080B500AF01224021F3
:10303000044800F02AFC01228021034800F025FC0E
:1030400000BF80BD000C01400010014080B500AF02
:1030500001224021044800F018FC0022802103488E
:1030600000F013FC00BF80BD000C014000100140C7
:1030700080B500AF00224021044800F006FC012288
:103080008021034800F001FC00BF80BD000C01401E
:103090000010014080B500AF00224FF400710A48D3
:1030A00000F0F3FB00224FF48071074800F0EDFBC5
:1030B00000224021054800F0E8FB0022802104485E
:1030C00000F0E3FB00BF80BD00080140000C0140A0
:1030D00000100140FFF7A6FE0B480C490C4A0023E4
:1030E00002E0D458C4500433C4188C42F9D3094ABE
:1030F000094C002301E013600432A242FBD303F029
:103100008DFEFFF7C3FA7047000000200C0200207C
:1031100014A100080C020020BC030020FEE7000000
:1031200080B500AF084B1B68074A43F010031360DB
:10313000032000F047F9002000F008F8FFF770FCCA
:103140000023184680BD00BF0020024080B582B039
:1031500000AF7860124B1A68124B1B7819464FF477
:103160007A73B3FBF1F3B2FBF3F3184600F05FF9A7
:103170000346002B01D001230EE07B680F2B0AD8F9
:10318000002279684FF0FF3000F027F9064A7B688B
:103190001360002300E0012318460837BD4680BDB8
:1031A00030000020380000203400002080B400AF40
:1031B000054B1B781A46054B1B681344034A1360E2
:1031C00000BFBD4680BC704738000020A803002027
:1031D00080B400AF024B1B681846BD4680BC7047E8
:1031E000A803002080B584B000AF7860FFF7F0FF3F
:1031F000B8607B68FB60FB68B3F1FF3F05D00A4B0A
:103200001B781A46FB681344FB6000BFFFF7E0FF22
:103210000246BB68D31AFA689A42F7D800BF00BFCB
:103220001037BD4680BD00BF3800002080B485B097
:1032300000AF78607B6803F00703FB600C4BDB6832
:10324000BB60BA684FF6FF031340BB60FB681A020D
:10325000BB68134343F0BF6343F40033BB60044ACD
:10326000BB68D36000BF1437BD4680BC704700BF49
:1032700000ED00E080B400AF044BDB681B0A03F0F4
:1032800007031846BD4680BC704700BF00ED00E054
:1032900080B483B000AF0346FB7197F90730002B71
:1032A0000BDBFB7903F01F02064997F907305B0936
:1032B000012000FA02F241F8232000BF0C37BD467E
:1032C00080BC704700E100E080B483B000AF0346EB
:1032D0003960FB7197F90730002B0ADB3B68DAB2E3
:1032E0000C4997F907301201D2B20B4483F800233E
:1032F0000AE03B68DAB20849FB7903F00F03043BAC
:103300001201D2B20B441A7600BF0C37BD4680BC06
:10331000704700BF00E100E000ED00E080B489B03C
:1033200000AFF860B9607A60FB6803F00703FB61E7
:10333000FB69C3F10703042B28BF0423BB61FB69AE
:103340000433062B02D9FB69033B00E000237B61B9
:103350004FF0FF32BB6902FA03F3DA43BB681A404D
:103360007B699A404FF0FF317B6901FA03F3D9433F
:103370007B680B40134318462437BD4680BC70471A
:1033800080B582B000AF78607B68013BB3F1807F8D
:1033900001D301230FE00A4A7B68013B53600F21F0
:1033A0004FF0FF30FFF790FF054B00229A60044B6F
:1033B00007221A60002318460837BD4680BD00BFAB
:1033C00010E000E080B582B000AF78607868FFF769
:1033D0002DFF00BF0837BD4680BD80B586B000AF69
:1033E0000346B9607A60FB7300237B61FFF742FFFD
:1033F00078617A68B9687869FFF790FF024697F9B3
:103400000F3011461846FFF75FFF00BF1837BD4663
:1034100080BD80B582B000AF0346FB7197F90730DD
:103420001846FFF735FF00BF0837BD4680BD80B5A1
:1034300082B000AF78607868FFF7A2FF03461846B5
:103440000837BD4680BD000080B584B000AF78600D
:103450000023FB737B6893F82130DBB2022B05D08D
:103460007B6804229A630123FB7351E07B681B682D
:103470001A687B681B6822F00E021A607B681B6862
:103480001A687B681B6822F001021A607B681B685F
:10349000224A934229D07B681B68214A934222D05A
:1034A0007B681B681F4A93421AD07B681B681E4AC0
:1034B000934212D07B681B681C4A93420AD07B68F7
:1034C0001B681B4A934202D14FF480130EE04FF069
:1034D00080730BE04FF4803308E04FF4805305E035
:1034E0004FF4807302E0102300E00123114A53607F
:1034F0007B68012283F821207B68002283F820204A
:103500007B685B6B002B03D07B685B6B78689847AC
:10351000FB7B18461037BD4680BD00BF0800024047
:103520001C000240300002404400024058000240AB
:103530006C0002400000024080B483B000AF7860AD
:103540007B6893F82130DBB218460C37BD4680BC4F
:103550007047000080B48BB000AF78603960002302
:103560007B6200233B6269E101227B6A02FA03F37A
:10357000FB613B681B68FA691340BB61BA69FB6970
:103580009A4240F058813B685B689A4A93425ED009
:10359000984A934275D8984A934258D0964A934293
:1035A0006FD8964A934252D0944A934269D8944A2B
:1035B00093424CD0924A934263D8924A934246D067
:1035C000904A93425DD8122B2AD8122B59D801A2C7
:1035D00052F823F04F360008293600083B36000821
:1035E0007D360008833600088336000883360008DD
:1035F00083360008833600088336000883360008C7
:1036000083360008833600088336000883360008B6
:103610008336000883360008313600084536000836
:10362000794A934213D02CE03B68DB683B6229E087
:103630003B68DB6804333B6224E03B68DB680833AB
:103640003B621FE03B68DB680C333B621AE03B687F
:103650009B68002B02D104233B6213E03B689B680C
:10366000012B05D108233B627B68FA691A6109E0E6
:1036700008233B627B68FA695A6103E000233B62DE
:1036800000E000BFBB69FF2B01D87B6801E07B68CD
:1036900004337B61BB69FF2B02D87B6A9B0002E08D
:1036A0007B6A083B9B003B617B691A680F213B6981
:1036B00001FA03F3DB431A40396A3B6901FA03F369
:1036C0001A437B691A603B685B6803F08053002BE8
:1036D00000F0B1804D4B9B694C4A43F0010393616C
:1036E0004A4B9B6903F00103BB60BB68484A7B6A95
:1036F0009B08023352F82330FB607B6A03F003031C
:103700009B000F2202FA03F3DB43FA681340FB60CD
:103710007B68404A934213D07B683F4A93420DD066
:103720007B683E4A934207D07B683D4A934201D171
:10373000032306E0042304E0022302E0012300E067
:1037400000237A6A02F0030292009340FA6813435E
:10375000FB602F497B6A9B080233FA6841F82320FB
:103760003B685B6803F48013002B06D02D4B9A68EE
:103770002C49BB6913438B6006E02A4B9A68BB69EE
:10378000DB43284913408B603B685B6803F40013FC
:10379000002B06D0234BDA682249BB691343CB6068
:1037A00006E0204BDA68BB69DB431E491340CB605F
:1037B0003B685B6803F40033002B06D0194B5A6852
:1037C0001849BB6913434B6006E0164B5A68BB6946
:1037D000DB43144913404B603B685B6803F4803360
:1037E000002B21D00F4B1A680E49BB6913430B60A5
:1037F00021E000BF00003210000031100000221054
:1038000000002110000012100000111000100240F2
:103810000000014000080140000C01400010014080
:1038200000140140000401400B4B1A68BB69DB43E4
:10383000094913400B607B6A01337B623B681A685D
:103840007B6A22FA03F3002B7FF48EAE00BF00BF29
:103850002C37BD4680BC70470004014080B485B061
:1038600000AF78600B467B807B689A687B8813404A
:10387000002B02D00123FB7301E00023FB73FB7BD1
:1038800018461437BD4680BC704780B483B000AF83
:1038900078600B467B8013467B707B78002B03D0CF
:1038A0007A887B681A6103E07B881A047B681A6156
:1038B00000BF0C37BD4680BC7047000080B582B0A9
:1038C00000AF0346FB80084B5A69FB881340002B6E
:1038D00006D0054AFB885361FB88184600F006F8BD
:1038E00000BF0837BD4680BD0004014080B483B0EE
:1038F00000AF0346FB8000BF0C37BD4680BC70475D
:1039000080B584B000AF78607B68002B01D10123C3
:103910002BE17B6893F83D30DBB2002B06D17B684E
:10392000002283F83C207868FFF7ACF87B682422FB
:1039300083F83D207B681B681A687B681B6822F04F
:1039400001021A607B681B681A687B681B6842F476
:1039500000421A607B681B681A687B681B6822F447
:1039600000421A6002F03EFDF8607B685B68814AA5
:10397000934207D8FB68804A934294BF01230023F7
:10398000DBB206E0FB687D4A934294BF012300232B
:10399000DBB2002B01D00123E7E0FB68784AA2FBF1
:1039A00003239B0CBB607B681B685B6823F03F01B3
:1039B0007B681B68BA680A435A607B681B681B6A8D
:1039C00023F03F017B685B686A4A934202D8BB6878
:1039D000013309E0BB684FF4967202FB03F3694AB6
:1039E000A2FB03239B0901337A6812680B4313621D
:1039F0007B681B68DB6923F44F4222F0FF027B687F
:103A00005B685C498B4219D8FB68591E7B685B6810
:103A10005B00B1FBF3F3591C40F6FC730B40002B29
:103A20000AD0FB68591E7B685B685B00B1FBF3F34F
:103A30000133C3F30B0351E004234FE07B689B6821
:103A4000002B11D1FB68581E7B6859680B465B0040
:103A50000B44B0FBF3F30133C3F30B03002B0CBF98
:103A600001230023DBB212E0FB68581E7B68596813
:103A70000B469B000B4499000B44B0FBF3F301335E
:103A8000C3F30B03002B0CBF01230023DBB2002B7D
:103A900001D0012322E07B689B68002B0ED1FB68DC
:103AA000581E7B6859680B465B000B44B0FBF3F370
:103AB0000133C3F30B0343F400430FE0FB68581ECC
:103AC0007B6859680B469B000B4499000B44B0FB84
:103AD000F3F30133C3F30B0343F4404379680968FC
:103AE0001343CB617B681B681B6823F0C0017B68B4
:103AF000DA697B681B6A1A437B681B680A431A6091
:103B00007B681B689B6823F4034323F0FF037A68F8
:103B100011697A68D26811437A6812680B4393601E
:103B20007B681B68DB6823F0FF017B685A697B6850
:103B30009B691A437B681B680A43DA607B681B68D1
:103B40001A687B681B6842F001021A607B680022D9
:103B50001A647B68202283F83D207B6800221A6368
:103B60007B68002283F83E20002318461037BD46AC
:103B700080BD00BFA08601007F841E00FF083D00BD
:103B800083DE1B43D34D621080B483B000AF7860F6
:103B90007B681B685B6903F08003802B03D17B6823
:103BA0001B6800221A6100BF0C37BD4680BC7047FD
:103BB00080B588B002AFF8607A601A460B467B8108
:103BC00013463B81FFF704FB7861FB6893F83D30B7
:103BD000DBB2202B40F0E0807B69009319230122A7
:103BE0007049F86801F012FE0346002B01D0022351
:103BF000D3E0FB6893F83C30012B01D10223CCE0E9
:103C0000FB68012283F83C20FB681B681B6803F0FB
:103C10000103012B07D0FB681B681A68FB681B684F
:103C200042F001021A60FB681B681A68FB681B6897
:103C300022F400621A60FB68212283F83D20FB68B1
:103C4000102283F83E20FB6800221A64FB687A6821
:103C50005A62FB683A895A85FB685B8D9AB2FB68A9
:103C60001A85FB68504ADA6279897B693A6AF86892
:103C700001F0A2FC0346002B01D001238DE00023BC
:103C80003B61FB681B685B693B61FB681B689B6968
:103C90003B613B6966E07A69396AF86801F0D0FEF9
:103CA0000346002B0DD0FB681B6C042B07D1FB686F
:103CB0001B681A68FB681B6842F400721A600123D3
:103CC0006BE0FB685B6A1A78FB681B681A61FB682B
:103CD0005B6A5A1CFB685A62FB685B8D9BB2013BB6
:103CE0009AB2FB685A85FB681B8D013B9AB2FB6850
:103CF0001A85FB681B685B6903F00403042B1BD166
:103D0000FB681B8D002B17D0FB685B6A1A78FB6879
:103D10001B681A61FB685B6A5A1CFB685A62FB6885
:103D20005B8D9BB2013B9AB2FB685A85FB681B8D89
:103D3000013B9AB2FB681A857A69396AF86801F022
:103D4000C7FE0346002B0DD0FB681B6C042B07D16C
:103D5000FB681B681A68FB681B6842F400721A60F3
:103D600001231AE0FB681B8D002B94D1FB681B68B4
:103D70001A68FB681B6842F400721A60FB68202214
:103D800083F83D20FB68002283F83E20FB68002278
:103D900083F83C20002300E0022318461837BD4674
:103DA00080BD00BF020010000000FFFF80B588B09A
:103DB00000AF78600023BB617B681B685B687B6138
:103DC0007B68DB6A3B617B6893F83E30FB737B6802
:103DD00093F83D30BB73FB7B102B03D0FB7B402B58
:103DE00040F0C1807B681B689B69BB617B681B6876
:103DF0005B69FB61FB6903F00103002B0DD13B699B
:103E0000B3F52A0F03D03B69B3F12A4F01D1012347
:103E100000E00023012B00F03281FB6903F0010375
:103E2000002B0CD07B695B0A03F00103002B06D04A
:103E3000786801F0F5FE786800F099FD92E0FB6982
:103E4000DB0803F00103002B09D07B695B0A03F058
:103E50000103002B03D0786800F00EFE82E0FB69BE
:103E60005B0803F00103002B09D07B695B0A03F0B8
:103E70000103002B03D0786800F027FE72E0BB69D5
:103E80009B0803F00103002B3BD07B681B685B6839
:103E900003F40063B3F5006F00F0F380FB69DB0906
:103EA00003F00103002B0FD07B699B0A03F0010391
:103EB000002B09D0FB699B0803F00103002B03D101
:103EC000786800F0F1F94DE0FB699B0803F001030D
:103ED000002B00F0D6807B695B0A03F00103002B06
:103EE00000F0CF80BB7B212B03D1786800F078FAFB
:103EF000C7E0FB7B402B40F0C480786800F0E6FA16
:103F0000BFE07B681B685B6803F40063B3F5006F78
:103F100000F0B780FB699B0903F00103002B0FD071
:103F20007B699B0A03F00103002B09D0FB699B0806
:103F300003F00103002B03D1786800F05FFB11E070
:103F4000FB699B0803F00103002B00F09A807B695A
:103F50005B0A03F00103002B00F09380786800F007
:103F600015FC8EE08DE07B681B6C002B04D07B6819
:103F70001B685B69FB6107E07B681B689B69BB6131
:103F80007B681B685B69FB61FB695B0803F00103ED
:103F9000002B12D07B695B0A03F00103002B0CD0CD
:103FA0007B681B6C002B03D07B681B689B69BB6123
:103FB000B969786800F0E0FF66E0FB691B0903F06F
:103FC0000103002B09D07B695B0A03F00103002B7E
:103FD00003D0786801F01AF856E0BB7B212B02D0A1
:103FE000BB7B292B25D1FB69DB0903F00103002BE7
:103FF0000FD07B699B0A03F00103002B09D0FB69FA
:104000009B0803F00103002B03D1786800F0F8FE51
:1040100039E0FB699B0803F00103002B33D07B6977
:104020005B0A03F00103002B2DD0786800F025FF18
:1040300029E0FB699B0903F00103002B0FD07B698A
:104040009B0A03F00103002B09D0FB699B0803F0D6
:104050000103002B03D1786800F02FFF14E0FB6907
:104060009B0803F00103002B0ED07B695B0A03F071
:104070000103002B08D0786800F05DFF04E000BF6A
:1040800002E000BF00E000BF2037BD4680BD80B524
:104090008AB000AF78607B681B685B693B627B68B5
:1040A0001B685B68FB6100237B627B6893F83E3092
:1040B000FB763B6A1B0A03F00103002B16D0FB6959
:1040C0001B0A03F00103002B10D07B6A43F00103AD
:1040D0007B627B681B686FF480725A617B681B6827
:1040E0001A687B681B6842F400421A603B6A5B0AEC
:1040F00003F00103002B0ED0FB691B0A03F0010340
:10410000002B08D07B6A43F002037B627B681B684C
:104110006FF400725A613B6A9B0A03F00103002BA3
:104120003FD0FB691B0A03F00103002B39D0FB7E53
:10413000BB767B685B8D9BB27B617B6893F83D307F
:10414000FB747B681B6BFB60BB7E202B12D17B69F1
:10415000002B0FD1FB7C212B08D0FB7C292B05D019
:10416000FB7C282B06D1FB68212B03D1786801F05A
:104170007DF816E07B681B686FF480625A617B6A89
:1041800043F004037B62FB7E102B02D0FB7E402BAE
:1041900007D17B681B681A687B681B6842F4007251
:1041A0001A603B6ADB0A03F00103002B0ED0FB69A7
:1041B0001B0A03F00103002B08D07B6A43F00803BD
:1041C0007B627B681B686FF400625A617B6A002B1C
:1041D00008D07B681A6C7B6A1A437B681A6478681B
:1041E00001F0B8F800BF2837BD4680BD80B483B069
:1041F00000AF786000BF0C37BD4680BC704780B40C
:1042000083B000AF786000BF0C37BD4680BC7047FC
:1042100080B483B000AF786000BF0C37BD4680BC6F
:10422000704780B483B000AF786000BF0C37BD46E4
:1042300080BC704780B483B000AF78600B46FB70E1
:1042400013463B8000BF0C37BD4680BC704780B42E
:1042500083B000AF786000BF0C37BD4680BC7047AC
:1042600080B483B000AF786000BF0C37BD4680BC1F
:10427000704780B483B000AF786000BF0C37BD4694
:1042800080BC704780B483B000AF786000BF0C374B
:10429000BD4680BC704780B483B000AF786000BF7B
:1042A0000C37BD4680BC704780B584B000AF7860E5
:1042B0007B6893F83D30FB737B6893F83E30BB73AB
:1042C0007B68DB6ABB607B681B8D002B50D1FB7B5E
:1042D000212B4DD1BB68082B1DD0BB68202B1AD0D9
:1042E000BB6813F5803F16D07B681B685A687B68F3
:1042F0001B6822F4E0625A607B6811221A637B68B3
:10430000002283F83E207B68202283F83D207868D5
:10431000FFF76CFF60E07B681B685A687B681B686E
:1043200022F4E0625A607B681B681A687B681B682D
:1043300042F400721A607B6800221A637B682022B4
:1043400083F83D207B6893F83E30DBB2402B07D1E9
:104350007B68002283F83E207868FFF781FF3BE00E
:104360007B68002283F83E207868FFF73FFF33E048
:10437000FB7B212B05D0BB7B402B2DD1FB7B222B44
:104380002AD17B685B8D9BB2002B08D17B681B68B0
:104390005A687B681B6822F480625A601CE07B6864
:1043A00093F83E30DBB2402B03D1786800F08EF8F2
:1043B00012E07B685B6A1A787B681B681A617B680D
:1043C0005B6A5A1C7B685A627B685B8D9BB2013BBF
:1043D0009AB27B685A85FFE700BF1037BD4680BDA3
:1043E00080B584B000AF78607B68DB6AFB607B6877
:1043F00093F83D30DBB2212B64D17B685B8D9BB29F
:10440000002B12D07B685B6A1A787B681B681A6184
:104410007B685B6A5A1C7B685A627B685B8D9BB2C7
:10442000013B9AB27B685A854CE0FB68082B1DD093
:10443000FB68202B1AD0FB6813F5803F16D07B68F1
:104440001B685A687B681B6822F4E0625A607B68CC
:1044500011221A637B68002283F83E207B682022A9
:1044600083F83D207868FFF7C1FE2BE07B681B686E
:104470005A687B681B6822F4E0625A607B681B689C
:104480001A687B681B6842F400721A607B6800221D
:104490001A637B68202283F83D207B6893F83E30C6
:1044A000DBB2402B07D17B68002283F83E2078687E
:1044B000FFF7D6FE06E07B68002283F83E2078688E
:1044C000FFF794FE00BF1037BD4680BD80B584B0B5
:1044D00000AF78607B6893F83D30FB737B681B6DA1
:1044E000002B1DD17B68DB6C012B0BD17B689B6C97
:1044F000DAB27B681B681A617B681B6D9A1C7B684B
:104500001A6577E07B689B6C9BB21B12DAB27B6802
:104510001B681A617B681B6D5A1C7B681A6569E011
:104520007B681B6D012B0BD17B689B6CDAB27B68BF
:104530001B681A617B681B6D5A1C7B681A6559E001
:104540007B681B6D022B52D1FB7B222B0DD17B682C
:104550001B681A687B681B6842F480721A607B686B
:104560001B6D5A1C7B681A6544E07B685B8D9BB2AF
:10457000002B15D0FB7B212B12D17B685B6A1A784C
:104580007B681B681A617B685B6A5A1C7B685A628D
:104590007B685B8D9BB2013B9AB27B685A8529E0B0
:1045A0007B685B8D9BB2002B24D1FB7B212B21D11F
:1045B0007B681B685A687B681B6822F4E0625A605B
:1045C0007B681B681A687B681B6842F400721A607B
:1045D0007B6800221A637B68202283F83D207B6879
:1045E000002283F83E207868FFF73AFE02E0786800
:1045F000FFF7CAFA00BF1037BD4680BD80B584B052
:1046000000AF78607B6893F83D30DBB2222B40F03E
:10461000B9807B68DB6AFB607B685B8D9BB2BB60AB
:10462000BB68032B21D97B681B681A697B685B6AAE
:10463000D2B21A707B685B6A5A1C7B685A627B68CC
:104640005B8D9BB2013B9AB27B685A857B685B8D20
:104650009BB2032B40F096807B681B685A687B688E
:104660001B6822F480625A608CE07B68DB6A022B54
:104670007FD0BB68012B02D0BB68002B79D1786852
:1046800001F06EFA0346002B4CD17B681B681A6858
:104690007B681B6822F480621A607B681B685A681A
:1046A0007B681B6822F4E0625A607B681B681A69A9
:1046B0007B685B6AD2B21A707B685B6A5A1C7B6843
:1046C0005A627B685B8D9BB2013B9AB27B685A85CC
:1046D0007B68202283F83D207B6893F83E30DBB274
:1046E000402B0AD17B68002283F83E207B680022A1
:1046F0001A637868FFF7BDFD44E07B68002283F809
:104700003E20FB68082B02D0FB68202B03D17B687E
:1047100000221A6302E07B6812221A637868FFF7AE
:104720006EFD2FE07B681B685A687B681B6822F46B
:10473000E0625A607B681B681A697B685B6AD2B268
:104740001A707B685B6A5A1C7B685A627B685B8D57
:104750009BB2013B9AB27B685A857B68202283F822
:104760003D207B68002283F83E207868FFF78AFDB1
:1047700008E07B681B685A687B681B6822F48062CB
:104780005A60FFE700BF1037BD4680BD80B584B0DA
:1047900000AF78607B68DB6AFB607B685B8D9BB2F7
:1047A000042B1BD17B681B685A687B681B6822F44A
:1047B00080625A607B681B681A697B685B6AD2B248
:1047C0001A707B685B6A5A1C7B685A627B685B8DD7
:1047D0009BB2013B9AB27B685A85C4E07B685B8DD3
:1047E0009BB2032B29D17B681B685A687B681B68C6
:1047F00022F480625A60FB68042B0AD0FB68022B0B
:1048000007D07B681B681A687B681B6822F480628B
:104810001A607B681B681A697B685B6AD2B21A707F
:104820007B685B6A5A1C7B685A627B685B8D9BB2B3
:10483000013B9AB27B685A8595E07B685B8D9BB2A1
:10484000022B7DD1FB68012B02D0FB68102B08D115
:104850007B681B681A687B681B6822F480621A6098
:1048600016E0FB68042B02D0FB68022B08D17B68A2
:104870001B681A687B681B6842F480621A6007E054
:104880007B681B681A687B681B6842F400721A60B8
:104890007B681B681A697B685B6AD2B21A707B6896
:1048A0005B6A5A1C7B685A627B685B8D9BB2013BDA
:1048B0009AB27B685A857B681B681A697B685B6A59
:1048C000D2B21A707B685B6A5A1C7B685A627B683A
:1048D0005B8D9BB2013B9AB27B685A857B681B68F3
:1048E0005A687B681B6822F440725A607B682022F9
:1048F00083F83D207B6893F83E30DBB2402B0AD131
:104900007B68002283F83E207B6800221A63786867
:10491000FFF7AFFC27E07B68002283F83E20FB68AE
:10492000082B02D0FB68202B03D17B6800221A637E
:1049300002E07B6812221A637868FFF760FC12E0DD
:104940007B681B681A697B685B6AD2B21A707B68E5
:104950005B6A5A1C7B685A627B685B8D9BB2013B29
:104960009AB27B685A8500BF1037BD4680BD80B4BF
:1049700083B000AF78607B6893F83E30DBB2402BA9
:1049800017D17B681B6D002B09D17B685B6CDBB298
:104990001A467B681B6802F0FE021A6167E07B68BA
:1049A0005B6CDBB243F00103DAB27B681B681A610F
:1049B0005DE07B681B69B3F5804F33D17B6893F86A
:1049C0003D30DBB2212B09D17B685B6CDBB21A4630
:1049D0007B681B6802F0FE021A6108E07B685B6C72
:1049E000DBB243F00103DAB27B681B681A617B68B3
:1049F0005B6B002B04D07B685B6B9B6A002B08D140
:104A00007B689B6B002B32D07B689B6B9B6A002B77
:104A10002DD07B681B685A687B681B6842F4006273
:104A20005A6024E07B681B6D002B0ED17B685B6CA9
:104A30009BB2DB11DBB203F00603DBB263F00F03C2
:104A4000DAB27B681B681A6111E07B681B6D012B71
:104A50000DD17B685B6C9BB2DB11DBB203F006030C
:104A6000DBB263F00E03DAB27B681B681A6100BF29
:104A70000C37BD4680BC704780B483B000AF78600F
:104A80007B685B6CDAB27B681B681A617B685B6B66
:104A9000002B04D07B685B6B9B6A002B08D17B6882
:104AA0009B6B002B0CD07B689B6B9B6A002B07D009
:104AB0007B681B685A687B681B6842F400625A6016
:104AC00000BF0C37BD4680BC704780B491B000AFCA
:104AD00078607B6893F83E3087F83F307B68DB6A0C
:104AE000BB637B681B6B7B637B6893F83D30DBB2F9
:104AF000222B40F074817B681B6D002B0FD197F83F
:104B00003F30402B0BD100233B637B681B685B6904
:104B10003B637B681B689B693B633B6B6BE17B681A
:104B20001B6D002B1DD17B681B69B3F5404F18D15D
:104B30000023FB627B681B685B69FB627B681B6808
:104B40009B69FB62FB6A7B681B681A687B681B6851
:104B500042F480721A607B681B6D5A1C7B681A6570
:104B600049E17B685B8D9BB2002B13D10023BB62B4
:104B70007B681B685B69BB627B681B689B69BB6267
:104B8000BB6A7B681B681A687B681B6842F400720A
:104B90001A6020E17B685B8D9BB2012B40F08A801C
:104BA000BB6B13F5803F37D17B681B681A687B6845
:104BB0001B6822F480621A607B681B685B6803F4E0
:104BC0000063B3F5006F13D17B681B681A687B68BC
:104BD0001B6822F480621A6000237B627B681B687A
:104BE0005B697B627B681B689B697B627B6AF2E026
:104BF00000233B627B681B685B693B627B681B68C8
:104C00009B693B623B6A7B681B681A687B681B6810
:104C100042F400721A60DEE0BB6B082B2ED0BB6B37
:104C2000202B2BD07B6B122B02D1BB6B012B25D100
:104C3000BB6B042B0ED0BB6B022B0BD0BB6B102BB2
:104C400008D07B681B681A687B681B6822F4806246
:104C50001A6007E07B681B681A687B681B6842F46F
:104C600080621A600023FB617B681B685B69FB61E3
:104C70007B681B689B69FB61FB69ACE07B681B6818
:104C80001A687B681B6822F480621A600023BB618B
:104C90007B681B685B69BB617B681B689B69BB6148
:104CA000BB697B681B681A687B681B6842F40072EA
:104CB0001A6090E07B685B8D9BB2022B58D1BB6B76
:104CC000042B21D0BB6B022B1ED0BB6B102B1BD037
:104CD0007B681B681A687B681B6842F400621A6074
:104CE00000237B617B681B685B697B617B681B6859
:104CF0009B697B617B697B681B681A687B681B68A2
:104D000022F480621A6012E07B681B681A687B6874
:104D10001B6842F480621A6000233B617B681B6859
:104D20005B693B617B681B689B693B613B697B6896
:104D30001B685B6803F40063B3F5006F4BD1BB6B7A
:104D400013F5803F0BD0BB6B012B08D0BB6B082B3E
:104D500005D0BB6B102B02D0BB6B202B3BD17B68EB
:104D60001B685A687B681B6842F480525A6032E0C4
:104D70007B681B681A687B681B6842F480621A6053
:104D80007B681B685B6803F40063B3F5006F17D1A1
:104D9000BB6B13F5803F0BD0BB6B012B08D0BB6BFB
:104DA000082B05D0BB6B102B02D0BB6B202B07D17F
:104DB0007B681B685A687B681B6842F480525A60A3
:104DC0000023FB607B681B685B69FB607B681B687A
:104DD0009B69FB60FB687B6800221A650BE000237F
:104DE000BB607B681B685B69BB607B681B689B69F9
:104DF000BB60BB68FFE700BF4437BD4680BC70475F
:104E000080B584B000AF78607B6893F83D30FB7369
:104E10007B685B8D9BB2002B2BD07B685B6A1A781A
:104E20007B681B681A617B685B6A5A1C7B685A62E4
:104E30007B685B8D9BB2013B9AB27B685A857B682D
:104E40005B8D9BB2002B14D1FB7B292B11D17B688E
:104E50001B685A687B681B6822F480625A607B6812
:104E600021221A637B68282283F83D207868FFF7A7
:104E7000CFF900BF1037BD4680BD80B483B000AF0E
:104E800078607B685B8D9BB2002B11D07B685B6A7E
:104E90001A787B681B681A617B685B6A5A1C7B689E
:104EA0005A627B685B8D9BB2013B9AB27B685A85E4
:104EB00000BF0C37BD4680BC704780B584B000AFE2
:104EC00078607B6893F83D30FB737B685B8D9BB2A9
:104ED000002B2CD07B681B681A697B685B6AD2B296
:104EE0001A707B685B6A5A1C7B685A627B685B8DB0
:104EF0009BB2013B9AB27B685A857B685B8D9BB203
:104F0000002B14D1FB7B2A2B11D17B681B685A68BC
:104F10007B681B6822F480625A607B6822221A63D5
:104F20007B68282283F83D207868FFF77AF900BF74
:104F30001037BD4680BD80B483B000AF78607B6819
:104F40005B8D9BB2002B12D07B681B681A697B6853
:104F50005B6AD2B21A707B685B6A5A1C7B685A62C1
:104F60007B685B8D9BB2013B9AB27B685A8500BF20
:104F70000C37BD4680BC704780B584B000AF786008
:104F800039600023FB737B6893F83D30DBB203F09C
:104F90002803282B27D17B681B685A687B681B680D
:104FA00022F480625A603B689B0803F00103002BE7
:104FB00001D10123FB733B68DB0903F00103002BE4
:104FC00003D17B68DB68BB8102E07B689B69BB81A6
:104FD0007B68002283F83C20BA89FB7B19467868FD
:104FE000FFF728F90EE00023BB607B681B685B6954
:104FF000BB607B681B689B69BB60BB687B680022E9
:1050000083F83C2000BF1037BD4680BD80B584B01A
:1050100000AF78607B6893F83D30FB737B681B685A
:105020005A687B681B6822F4E0625A600023BB6008
:105030007B681B685B69BB607B681B681A687B6860
:105040001B6842F001021A60BB687B681B681A6823
:105050007B681B6822F480621A607B681B685B684F
:1050600003F40063B3F5006F72D1FB7B222B02D0F7
:10507000FB7B2A2B35D17B689B6B1B685B689AB2E4
:105080007B685A857B685B8D9BB2002B05D07B6863
:105090001B6C43F004027B681A647B681B685A68C7
:1050A0007B681B6822F400625A607B689B6B184621
:1050B000FEF742FA0346012B49D07B689B6B694A95
:1050C0005A637B689B6B1846FEF7BEF90346002BBC
:1050D0003DD07B689B6B5B6B7A68926B1046984700
:1050E00035E07B685B6B1B685B689AB27B685A85AE
:1050F0007B685B8D9BB2002B05D07B681B6C43F0FB
:1051000004027B681A647B681B685A687B681B68AA
:1051100022F400625A607B685B6B1846FEF70CFA5B
:105120000346012B14D07B685B6B4E4A5A637B6845
:105130005B6B1846FEF788F90346002B08D07B68A6
:105140005B6B5B6B7A68526B1046984700E000BF60
:105150007B685B8D9BB2002B3ED07B681B685B69D4
:1051600003F00403042B12D17B681B681A697B6867
:105170005B6AD2B21A707B685B6A5A1C7B685A629F
:105180007B685B8D9BB2013B9AB27B685A857B68DA
:105190001B685B6903F04003402B12D17B681B68DE
:1051A0001A697B685B6AD2B21A707B685B6A5A1CA8
:1051B0007B685A627B685B8D9BB2013B9AB27B68CD
:1051C0005A857B685B8D9BB2002B05D07B681B6C7E
:1051D00043F004027B681A647B681B6C002B03D0CD
:1051E000786800F0B7F839E0FB7B2A2B09D17B689F
:1051F00000221A637B68282283F83D207868FFF735
:1052000010F87B6893F83D30DBB2282B11D17B6816
:10521000154ADA627B6800221A637B68202283F8D1
:105220003D207B68002283F83E207868FFF70FF866
:1052300014E07B681B6B222B02D0FB7B222B0DD151
:105240007B6800221A637B68202283F83D207B68FC
:10525000002283F83E207868FEF7E3FF00BF103796
:10526000BD4680BDBD5600080000FFFF80B584B07C
:1052700000AF78607B6893F83D30FB737B68DB6A36
:10528000BB60BB68082B02D0BB68202B29D1FB7BFD
:10529000282B26D17B682E4ADA627B681B685A6805
:1052A0007B681B6822F4E0625A607B681B686FF4BD
:1052B00080625A617B681B681A687B681B6822F4ED
:1052C00080621A607B6800221A637B68202283F860
:1052D0003D207B68002283F83E207868FEF7B7FF08
:1052E00031E0FB7B212B29D17B68194ADA627B688C
:1052F00021221A637B68202283F83D207B680022EC
:1053000083F83E207B681B685A687B681B6822F420
:10531000E0625A607B681B686FF480625A617B6848
:105320001B681A687B681B6822F480621A607868C0
:10533000FEF72AFC7868FEF76BFF04E07B681B68C9
:105340006FF480625A6100BF1037BD4680BD00BF58
:105350000000FFFF80B584B000AF78607B6893F8F1
:105360003D30FB737B6893F83E30BB73BB7B102BE7
:1053700002D0BB7B402B0AD1FB7B222B07D17B6861
:105380001B681A687B681B6822F400621A60FB7B4A
:1053900003F02803282B07D17B6800221A637B685F
:1053A000282283F83D2015E07B681B685B6803F4C6
:1053B0000063B3F5006F0AD0FB7B602B07D07B68DE
:1053C000202283F83D207B68002283F83E207B6802
:1053D00000221A637B681B685B6803F40063B3F503
:1053E000006F62D17B681B685A687B681B6822F477
:1053F00000625A607B685B6B93F82130DBB2012B53
:1054000020D07B685B6B6A4A5A637B685B6B18468B
:10541000FEF71AF80346002B00F089807B681B68B2
:105420001A687B681B6822F001021A607B682022E0
:1054300083F83D207B685B6B5B6B7A68526B104630
:10544000984774E07B689B6B594A5A637B689B6BF7
:105450001846FDF7F9FF0346002B68D07B681B68F0
:105460005B6903F04003402B0BD17B681B681A6912
:105470007B685B6AD2B21A707B685B6A5A1C7B6875
:105480005A627B681B681A687B681B6822F00102FD
:105490001A607B68202283F83D207B689B6B5B6BE6
:1054A0007A68926B1046984741E07B6893F83D30EC
:1054B000DBB2602B25D17B68202283F83D207B68FE
:1054C00000221A647B681B685B6903F04003402B71
:1054D0000BD17B681B681A697B685B6AD2B21A7051
:1054E0007B685B6A5A1C7B685A627B681B681A6817
:1054F0007B681B6822F001021A607868FEF7CBFE19
:1055000015E07B681B685B6903F04003402B0BD1FF
:105510007B681B681A697B685B6AD2B21A707B6809
:105520005B6A5A1C7B685A627868FEF7ABFE7B6840
:105530001B6CBB60BB6803F00103002B0ED1BB6882
:1055400003F00203002B09D1BB6803F00403002B16
:1055500004D1BB6803F00803002B07D07B681B68ED
:105560005A687B681B6822F4E0625A607B6893F893
:105570003D30FB737B681B6C03F00403042B13D1D9
:10558000FB7B282B10D17B680A4ADA627B680022F9
:105590001A637B68202283F83D207B68002283F811
:1055A0003E207868FEF753FE00BF1037BD4680BD31
:1055B000BD5600080000FFFF80B588B002AFF8605C
:1055C0007A603B600B467B81FB68DB6A7B617B69B1
:1055D000082B06D07B69012B03D07B6913F5803F34
:1055E00008D1FB681B681A68FB681B6842F480726C
:1055F0001A600BE0FB681B6B122B07D1FB681B6862
:105600001A68FB681B6842F480721A603B6800935A
:105610007B6800224FF00111F86800F0F7F80346AC
:10562000002B0DD0FB681B681B6803F48073B3F577
:10563000807F03D1FB684FF400721A64032335E0C6
:10564000FB681B69B3F5804F08D17B89DBB21A4632
:10565000FB681B6802F0FE021A611BE07B89DB110C
:10566000DBB203F00603DBB263F00F03DAB2FB68D0
:105670001B681A613B687A680E49F86800F040F9C7
:105680000346002B01D0012310E07B89DAB2FB68CE
:105690001B681A613B687A680749F86800F030F9BE
:1056A0000346002B01D0012300E0002318461837E1
:1056B000BD4680BD080001000200010080B586B033
:1056C00000AF78600023FB607B685B6A7B617B696D
:1056D00093F83D30FB744B4B1B68DB084A4AA2FB36
:1056E00003231A0A13469B001344DA00D31AFB6003
:1056F000FB68002B06D17B691B6C43F020027B69A1
:105700001A640AE0FB68013BFB607B691B681B684D
:1057100003F40073B3F5007FEAD07B695B6B002B69
:1057200003D07B695B6B00229A627B699B6B002BC9
:1057300003D07B699B6B00229A627B691B681A68A5
:105740007B691B6822F480621A607B6900225A859B
:105750007B695B6B002B03D07B695B6B00225A6318
:105760007B699B6B002B03D07B699B6B00225A6388
:105770007B691B681A687B691B6822F001021A604A
:105780007B6993F83D30DBB2602B0ED17B69202220
:1057900083F83D207B69002283F83E207B6900224C
:1057A0001A647869FEF777FD27E0FB7C03F0280395
:1057B000282B17D17B691B681A687B691B6842F02C
:1057C00001021A607B691B681A687B691B6842F4D6
:1057D00080621A607B6900221A637B69282283F841
:1057E0003D2007E07B69202283F83D207B69002271
:1057F00083F83E207869FEF745FD00BF1837BD46A7
:1058000080BD00BF3000002089B5F81480B584B099
:1058100000AFF860B9603B601346FB7148E03B683D
:10582000B3F1FF3F44D0FDF7D3FC0246BB69D31A66
:105830003A689A4202D33B68002B39D1BB681B0CF3
:10584000DBB2012B0DD1FB681B685B69DA43BB68D7
:1058500013409BB2002B0CBF01230023DBB21A467E
:105860000CE0FB681B689B69DA43BB6813409BB282
:10587000002B0CBF01230023DBB21A46FB799A42AE
:1058800016D1FB6800221A63FB68202283F83D20B2
:10589000FB68002283F83E20FB681B6C43F020026B
:1058A000FB681A64FB68002283F83C20012323E094
:1058B000BB681B0CDBB2012B0DD1FB681B685B695D
:1058C000DA43BB6813409BB2002B0CBF01230023BB
:1058D000DBB21A460CE0FB681B689B69DA43BB68C5
:1058E00013409BB2002B0CBF01230023DBB21A46EE
:1058F000FB799A4293D0002318461037BD4680BDED
:1059000080B584B000AFF860B9607A603B6071E048
:10591000FB681B685B6903F48063B3F5806F23D178
:10592000FB681B681A68FB681B6842F400721A6007
:10593000FB681B686FF480625A61FB6800221A637F
:10594000FB68202283F83D20FB68002283F83E207C
:10595000FB681B6C43F00402FB681A64FB680022BE
:1059600083F83C20012367E07B68B3F1FF3F41D01F
:10597000FDF72EFC02463B68D31A7A689A4202D39E
:105980007B68002B36D1BB681B0CDBB2012B0CD122
:10599000FB681B685B69DA43BB6813409BB2002B52
:1059A00014BF01230023DBB20BE0FB681B689B697B
:1059B000DA43BB6813409BB2002B14BF01230023C2
:1059C000DBB2002B16D0FB6800221A63FB68202292
:1059D00083F83D20FB68002283F83E20FB681B6CA7
:1059E00043F02002FB681A64FB68002283F83C2025
:1059F000012321E0BB681B0CDBB2012B0CD1FB683F
:105A00001B685B69DA43BB6813409BB2002B14BF71
:105A100001230023DBB20BE0FB681B689B69DA43C0
:105A2000BB6813409BB2002B14BF01230023DBB2E1
:105A3000002B7FF46DAF002318461037BD4680BDA4
:105A400080B584B000AFF860B9607A6034E0F8687F
:105A500000F0B8F80346002B01D0012334E0BB6806
:105A6000B3F1FF3F28D0FDF7B3FB02467B68D31AA2
:105A7000BA689A4202D3BB68002B1DD1FB681B6831
:105A80005B6903F08003802B16D0FB6800221A6349
:105A9000FB68202283F83D20FB68002283F83E202B
:105AA000FB681B6C43F02002FB681A64FB68002251
:105AB00083F83C20012307E0FB681B685B6903F067
:105AC0008003802BC3D1002318461037BD4680BD0C
:105AD00080B584B000AFF860B9607A6034E0F868EF
